{
  "address": "0xBDc155d3BF08c155Ba77d272cc56DDb702CfB8A3",
  "abi": [
    {
      "inputs": [],
      "stateMutability": "nonpayable",
      "type": "constructor"
    },
    {
      "inputs": [
        {
          "internalType": "address",
          "name": "sender",
          "type": "address"
        },
        {
          "internalType": "uint256",
          "name": "tokenId",
          "type": "uint256"
        },
        {
          "internalType": "address",
          "name": "owner",
          "type": "address"
        }
      ],
      "name": "ERC721IncorrectOwner",
      "type": "error"
    },
    {
      "inputs": [
        {
          "internalType": "address",
          "name": "operator",
          "type": "address"
        },
        {
          "internalType": "uint256",
          "name": "tokenId",
          "type": "uint256"
        }
      ],
      "name": "ERC721InsufficientApproval",
      "type": "error"
    },
    {
      "inputs": [
        {
          "internalType": "address",
          "name": "approver",
          "type": "address"
        }
      ],
      "name": "ERC721InvalidApprover",
      "type": "error"
    },
    {
      "inputs": [
        {
          "internalType": "address",
          "name": "operator",
          "type": "address"
        }
      ],
      "name": "ERC721InvalidOperator",
      "type": "error"
    },
    {
      "inputs": [
        {
          "internalType": "address",
          "name": "owner",
          "type": "address"
        }
      ],
      "name": "ERC721InvalidOwner",
      "type": "error"
    },
    {
      "inputs": [
        {
          "internalType": "address",
          "name": "receiver",
          "type": "address"
        }
      ],
      "name": "ERC721InvalidReceiver",
      "type": "error"
    },
    {
      "inputs": [
        {
          "internalType": "address",
          "name": "sender",
          "type": "address"
        }
      ],
      "name": "ERC721InvalidSender",
      "type": "error"
    },
    {
      "inputs": [
        {
          "internalType": "uint256",
          "name": "tokenId",
          "type": "uint256"
        }
      ],
      "name": "ERC721NonexistentToken",
      "type": "error"
    },
    {
      "inputs": [
        {
          "internalType": "address",
          "name": "owner",
          "type": "address"
        }
      ],
      "name": "OwnableInvalidOwner",
      "type": "error"
    },
    {
      "inputs": [
        {
          "internalType": "address",
          "name": "account",
          "type": "address"
        }
      ],
      "name": "OwnableUnauthorizedAccount",
      "type": "error"
    },
    {
      "anonymous": false,
      "inputs": [
        {
          "indexed": true,
          "internalType": "address",
          "name": "owner",
          "type": "address"
        },
        {
          "indexed": true,
          "internalType": "address",
          "name": "approved",
          "type": "address"
        },
        {
          "indexed": true,
          "internalType": "uint256",
          "name": "tokenId",
          "type": "uint256"
        }
      ],
      "name": "Approval",
      "type": "event"
    },
    {
      "anonymous": false,
      "inputs": [
        {
          "indexed": true,
          "internalType": "address",
          "name": "owner",
          "type": "address"
        },
        {
          "indexed": true,
          "internalType": "address",
          "name": "operator",
          "type": "address"
        },
        {
          "indexed": false,
          "internalType": "bool",
          "name": "approved",
          "type": "bool"
        }
      ],
      "name": "ApprovalForAll",
      "type": "event"
    },
    {
      "anonymous": false,
      "inputs": [
        {
          "indexed": true,
          "internalType": "address",
          "name": "previousOwner",
          "type": "address"
        },
        {
          "indexed": true,
          "internalType": "address",
          "name": "newOwner",
          "type": "address"
        }
      ],
      "name": "OwnershipTransferred",
      "type": "event"
    },
    {
      "anonymous": false,
      "inputs": [
        {
          "indexed": true,
          "internalType": "uint256",
          "name": "tokenId",
          "type": "uint256"
        },
        {
          "indexed": true,
          "internalType": "address",
          "name": "owner",
          "type": "address"
        },
        {
          "indexed": false,
          "internalType": "string",
          "name": "username",
          "type": "string"
        }
      ],
      "name": "TicketMinted",
      "type": "event"
    },
    {
      "anonymous": false,
      "inputs": [
        {
          "indexed": true,
          "internalType": "address",
          "name": "from",
          "type": "address"
        },
        {
          "indexed": true,
          "internalType": "address",
          "name": "to",
          "type": "address"
        },
        {
          "indexed": true,
          "internalType": "uint256",
          "name": "tokenId",
          "type": "uint256"
        }
      ],
      "name": "Transfer",
      "type": "event"
    },
    {
      "inputs": [],
      "name": "TICKET_PRICE",
      "outputs": [
        {
          "internalType": "uint256",
          "name": "",
          "type": "uint256"
        }
      ],
      "stateMutability": "view",
      "type": "function"
    },
    {
      "inputs": [
        {
          "internalType": "address",
          "name": "to",
          "type": "address"
        },
        {
          "internalType": "uint256",
          "name": "tokenId",
          "type": "uint256"
        }
      ],
      "name": "approve",
      "outputs": [],
      "stateMutability": "nonpayable",
      "type": "function"
    },
    {
      "inputs": [
        {
          "internalType": "address",
          "name": "owner",
          "type": "address"
        }
      ],
      "name": "balanceOf",
      "outputs": [
        {
          "internalType": "uint256",
          "name": "",
          "type": "uint256"
        }
      ],
      "stateMutability": "view",
      "type": "function"
    },
    {
      "inputs": [
        {
          "internalType": "uint256",
          "name": "tokenId",
          "type": "uint256"
        }
      ],
      "name": "getApproved",
      "outputs": [
        {
          "internalType": "address",
          "name": "",
          "type": "address"
        }
      ],
      "stateMutability": "view",
      "type": "function"
    },
    {
      "inputs": [
        {
          "internalType": "address",
          "name": "user",
          "type": "address"
        }
      ],
      "name": "getUserTickets",
      "outputs": [
        {
          "components": [
            {
              "internalType": "uint256",
              "name": "tokenId",
              "type": "uint256"
            },
            {
              "internalType": "address",
              "name": "owner",
              "type": "address"
            },
            {
              "internalType": "string",
              "name": "username",
              "type": "string"
            },
            {
              "internalType": "uint256",
              "name": "mintedAt",
              "type": "uint256"
            }
          ],
          "internalType": "struct ETHSafariTicket.Ticket[]",
          "name": "",
          "type": "tuple[]"
        }
      ],
      "stateMutability": "view",
      "type": "function"
    },
    {
      "inputs": [
        {
          "internalType": "address",
          "name": "owner",
          "type": "address"
        },
        {
          "internalType": "address",
          "name": "operator",
          "type": "address"
        }
      ],
      "name": "isApprovedForAll",
      "outputs": [
        {
          "internalType": "bool",
          "name": "",
          "type": "bool"
        }
      ],
      "stateMutability": "view",
      "type": "function"
    },
    {
      "inputs": [
        {
          "internalType": "string",
          "name": "username",
          "type": "string"
        }
      ],
      "name": "mintTicket",
      "outputs": [],
      "stateMutability": "payable",
      "type": "function"
    },
    {
      "inputs": [],
      "name": "name",
      "outputs": [
        {
          "internalType": "string",
          "name": "",
          "type": "string"
        }
      ],
      "stateMutability": "view",
      "type": "function"
    },
    {
      "inputs": [],
      "name": "owner",
      "outputs": [
        {
          "internalType": "address",
          "name": "",
          "type": "address"
        }
      ],
      "stateMutability": "view",
      "type": "function"
    },
    {
      "inputs": [
        {
          "internalType": "uint256",
          "name": "tokenId",
          "type": "uint256"
        }
      ],
      "name": "ownerOf",
      "outputs": [
        {
          "internalType": "address",
          "name": "",
          "type": "address"
        }
      ],
      "stateMutability": "view",
      "type": "function"
    },
    {
      "inputs": [],
      "name": "renounceOwnership",
      "outputs": [],
      "stateMutability": "nonpayable",
      "type": "function"
    },
    {
      "inputs": [
        {
          "internalType": "address",
          "name": "from",
          "type": "address"
        },
        {
          "internalType": "address",
          "name": "to",
          "type": "address"
        },
        {
          "internalType": "uint256",
          "name": "tokenId",
          "type": "uint256"
        }
      ],
      "name": "safeTransferFrom",
      "outputs": [],
      "stateMutability": "nonpayable",
      "type": "function"
    },
    {
      "inputs": [
        {
          "internalType": "address",
          "name": "from",
          "type": "address"
        },
        {
          "internalType": "address",
          "name": "to",
          "type": "address"
        },
        {
          "internalType": "uint256",
          "name": "tokenId",
          "type": "uint256"
        },
        {
          "internalType": "bytes",
          "name": "data",
          "type": "bytes"
        }
      ],
      "name": "safeTransferFrom",
      "outputs": [],
      "stateMutability": "nonpayable",
      "type": "function"
    },
    {
      "inputs": [
        {
          "internalType": "address",
          "name": "operator",
          "type": "address"
        },
        {
          "internalType": "bool",
          "name": "approved",
          "type": "bool"
        }
      ],
      "name": "setApprovalForAll",
      "outputs": [],
      "stateMutability": "nonpayable",
      "type": "function"
    },
    {
      "inputs": [
        {
          "internalType": "bytes4",
          "name": "interfaceId",
          "type": "bytes4"
        }
      ],
      "name": "supportsInterface",
      "outputs": [
        {
          "internalType": "bool",
          "name": "",
          "type": "bool"
        }
      ],
      "stateMutability": "view",
      "type": "function"
    },
    {
      "inputs": [],
      "name": "symbol",
      "outputs": [
        {
          "internalType": "string",
          "name": "",
          "type": "string"
        }
      ],
      "stateMutability": "view",
      "type": "function"
    },
    {
      "inputs": [
        {
          "internalType": "uint256",
          "name": "",
          "type": "uint256"
        }
      ],
      "name": "tickets",
      "outputs": [
        {
          "internalType": "uint256",
          "name": "tokenId",
          "type": "uint256"
        },
        {
          "internalType": "address",
          "name": "owner",
          "type": "address"
        },
        {
          "internalType": "string",
          "name": "username",
          "type": "string"
        },
        {
          "internalType": "uint256",
          "name": "mintedAt",
          "type": "uint256"
        }
      ],
      "stateMutability": "view",
      "type": "function"
    },
    {
      "inputs": [
        {
          "internalType": "uint256",
          "name": "tokenId",
          "type": "uint256"
        }
      ],
      "name": "tokenURI",
      "outputs": [
        {
          "internalType": "string",
          "name": "",
          "type": "string"
        }
      ],
      "stateMutability": "view",
      "type": "function"
    },
    {
      "inputs": [
        {
          "internalType": "address",
          "name": "from",
          "type": "address"
        },
        {
          "internalType": "address",
          "name": "to",
          "type": "address"
        },
        {
          "internalType": "uint256",
          "name": "tokenId",
          "type": "uint256"
        }
      ],
      "name": "transferFrom",
      "outputs": [],
      "stateMutability": "nonpayable",
      "type": "function"
    },
    {
      "inputs": [
        {
          "internalType": "address",
          "name": "newOwner",
          "type": "address"
        }
      ],
      "name": "transferOwnership",
      "outputs": [],
      "stateMutability": "nonpayable",
      "type": "function"
    },
    {
      "inputs": [
        {
          "internalType": "address",
          "name": "",
          "type": "address"
        },
        {
          "internalType": "uint256",
          "name": "",
          "type": "uint256"
        }
      ],
      "name": "userTickets",
      "outputs": [
        {
          "internalType": "uint256",
          "name": "",
          "type": "uint256"
        }
      ],
      "stateMutability": "view",
      "type": "function"
    },
    {
      "inputs": [],
      "name": "withdraw",
      "outputs": [],
      "stateMutability": "nonpayable",
      "type": "function"
    }
  ],
  "transactionHash": "0x559c74237c30810962b0a9e0e699cc222a1cdddfb60069df22770a50b0cb2c4a",
  "args": [],
  "numDeployments": 1,
  "solcInputHash": "d74eab23faa775ddd20d83dc558bd42c",
  "bytecode": "0x60806040523480156200001157600080fd5b50336040518060400160405280601581526020017f4554485361666172692032303236205469636b657400000000000000000000008152506040518060400160405280600581526020016422a9aa191b60d91b8152508160009081620000789190620001c2565b506001620000878282620001c2565b5050506001600160a01b038116620000b957604051631e4fbdf760e01b81526000600482015260240160405180910390fd5b620000c481620000cb565b506200028e565b600680546001600160a01b038381166001600160a01b0319831681179093556040519116919082907f8be0079c531659141344cd1fd0a4f28419497f9722a3daafe3b4186f6b6457e090600090a35050565b634e487b7160e01b600052604160045260246000fd5b600181811c908216806200014857607f821691505b6020821081036200016957634e487b7160e01b600052602260045260246000fd5b50919050565b601f821115620001bd57600081815260208120601f850160051c81016020861015620001985750805b601f850160051c820191505b81811015620001b957828155600101620001a4565b5050505b505050565b81516001600160401b03811115620001de57620001de6200011d565b620001f681620001ef845462000133565b846200016f565b602080601f8311600181146200022e5760008415620002155750858301515b600019600386901b1c1916600185901b178555620001b9565b600085815260208120601f198616915b828110156200025f578886015182559484019460019091019084016200023e565b50858210156200027e5787850151600019600388901b60f8161c191681555b5050505050600190811b01905550565b611a36806200029e6000396000f3fe6080604052600436106101355760003560e01c806370a08231116100ab578063a22cb4651161006f578063a22cb46514610361578063b88d4fde14610381578063c87b56dd146103a1578063cf260baf146103c1578063e985e9c5146103e1578063f2fde38b1461040157600080fd5b806370a08231146102e6578063715018a6146103065780638da5cb5b1461031b57806395d89b411461033957806396651ecf1461034e57600080fd5b80631a95f15f116100fd5780631a95f15f1461021857806323b872dd146102415780633ccfd60b1461026157806342842e0e1461027657806350b44712146102965780636352211e146102c657600080fd5b806301ffc9a71461013a5780630484a22f1461016f57806306fdde031461019c578063081812fc146101be578063095ea7b3146101f6575b600080fd5b34801561014657600080fd5b5061015a61015536600461140f565b610421565b60405190151581526020015b60405180910390f35b34801561017b57600080fd5b5061018f61018a366004611448565b610473565b60405161016691906114b3565b3480156101a857600080fd5b506101b16106ad565b604051610166919061154a565b3480156101ca57600080fd5b506101de6101d936600461155d565b61073f565b6040516001600160a01b039091168152602001610166565b34801561020257600080fd5b50610216610211366004611576565b610768565b005b34801561022457600080fd5b50610233662386f26fc1000081565b604051908152602001610166565b34801561024d57600080fd5b5061021661025c3660046115a0565b610777565b34801561026d57600080fd5b50610216610807565b34801561028257600080fd5b506102166102913660046115a0565b61084b565b3480156102a257600080fd5b506102b66102b136600461155d565b61086b565b60405161016694939291906115dc565b3480156102d257600080fd5b506101de6102e136600461155d565b610926565b3480156102f257600080fd5b50610233610301366004611448565b610931565b34801561031257600080fd5b50610216610979565b34801561032757600080fd5b506006546001600160a01b03166101de565b34801561034557600080fd5b506101b161098d565b61021661035c3660046116a3565b61099c565b34801561036d57600080fd5b5061021661037c3660046116ec565b610b71565b34801561038d57600080fd5b5061021661039c366004611728565b610b7c565b3480156103ad57600080fd5b506101b16103bc36600461155d565b610b93565b3480156103cd57600080fd5b506102336103dc366004611576565b610c08565b3480156103ed57600080fd5b5061015a6103fc3660046117a4565b610c39565b34801561040d57600080fd5b5061021661041c366004611448565b610c67565b60006001600160e01b031982166380ac58cd60e01b148061045257506001600160e01b03198216635b5e139f60e01b145b8061046d57506301ffc9a760e01b6001600160e01b03198316145b92915050565b6001600160a01b03811660009081526009602090815260408083208054825181850281018501909352808352606094938301828280156104d257602002820191906000526020600020905b8154815260200190600101908083116104be575b505050505090506000815167ffffffffffffffff8111156104f5576104f5611617565b60405190808252806020026020018201604052801561055a57816020015b61054760405180608001604052806000815260200160006001600160a01b0316815260200160608152602001600081525090565b8152602001906001900390816105135790505b50905060005b82518110156106a5576008600084838151811061057f5761057f6117d7565b60200260200101518152602001908152602001600020604051806080016040529081600082015481526020016001820160009054906101000a90046001600160a01b03166001600160a01b03166001600160a01b031681526020016002820180546105e9906117ed565b80601f0160208091040260200160405190810160405280929190818152602001828054610615906117ed565b80156106625780601f1061063757610100808354040283529160200191610662565b820191906000526020600020905b81548152906001019060200180831161064557829003601f168201915b50505050508152602001600382015481525050828281518110610687576106876117d7565b6020026020010181905250808061069d9061183d565b915050610560565b509392505050565b6060600080546106bc906117ed565b80601f01602080910402602001604051908101604052809291908181526020018280546106e8906117ed565b80156107355780601f1061070a57610100808354040283529160200191610735565b820191906000526020600020905b81548152906001019060200180831161071857829003601f168201915b5050505050905090565b600061074a82610ca2565b506000828152600460205260409020546001600160a01b031661046d565b610773828233610cdb565b5050565b6001600160a01b0382166107a657604051633250574960e11b8152600060048201526024015b60405180910390fd5b60006107b3838333610ce8565b9050836001600160a01b0316816001600160a01b031614610801576040516364283d7b60e01b81526001600160a01b038086166004830152602482018490528216604482015260640161079d565b50505050565b61080f610de1565b6006546040516001600160a01b03909116904780156108fc02916000818181858888f19350505050158015610848573d6000803e3d6000fd5b50565b61086683838360405180602001604052806000815250610b7c565b505050565b60086020526000908152604090208054600182015460028301805492936001600160a01b039092169261089d906117ed565b80601f01602080910402602001604051908101604052809291908181526020018280546108c9906117ed565b80156109165780601f106108eb57610100808354040283529160200191610916565b820191906000526020600020905b8154815290600101906020018083116108f957829003601f168201915b5050505050908060030154905084565b600061046d82610ca2565b60006001600160a01b03821661095d576040516322718ad960e21b81526000600482015260240161079d565b506001600160a01b031660009081526003602052604090205490565b610981610de1565b61098b6000610e0e565b565b6060600180546106bc906117ed565b662386f26fc100003410156109ea5760405162461bcd60e51b8152602060048201526014602482015273125b9cdd59999a58da595b9d081c185e5b595b9d60621b604482015260640161079d565b6000815111610a2f5760405162461bcd60e51b8152602060048201526011602482015270155cd95c9b985b59481c995c5d5a5c9959607a1b604482015260640161079d565b600780549081906000610a418361183d565b9190505550610a503382610e60565b60408051608081018252828152336020808301918252828401868152426060850152600086815260089092529390208251815590516001820180546001600160a01b0319166001600160a01b0390921691909117905591519091906002820190610aba90826118a4565b5060609190910151600390910155336000818152600960209081526040808320805460018101825590845291909220018390555182907f01fe50c1ea65ec45d727411cce4e6ac546a4cc83120dc5d887b7949347bfe72890610b1d90869061154a565b60405180910390a3662386f26fc1000034111561077357336108fc610b49662386f26fc1000034611964565b6040518115909202916000818181858888f19350505050158015610866573d6000803e3d6000fd5b610773338383610e7a565b610b87848484610777565b61080184848484610f19565b6060610b9e82610ca2565b506000610bb660408051602081019091526000815290565b90506000815111610bd65760405180602001604052806000815250610c01565b80610be084611042565b604051602001610bf1929190611977565b6040516020818303038152906040525b9392505050565b60096020528160005260406000208181548110610c2457600080fd5b90600052602060002001600091509150505481565b6001600160a01b03918216600090815260056020908152604080832093909416825291909152205460ff1690565b610c6f610de1565b6001600160a01b038116610c9957604051631e4fbdf760e01b81526000600482015260240161079d565b61084881610e0e565b6000818152600260205260408120546001600160a01b03168061046d57604051637e27328960e01b81526004810184905260240161079d565b61086683838360016110d5565b6000828152600260205260408120546001600160a01b0390811690831615610d1557610d158184866111db565b6001600160a01b03811615610d5357610d326000856000806110d5565b6001600160a01b038116600090815260036020526040902080546000190190555b6001600160a01b03851615610d82576001600160a01b0385166000908152600360205260409020805460010190555b60008481526002602052604080822080546001600160a01b0319166001600160a01b0389811691821790925591518793918516917fddf252ad1be2c89b69c2b068fc378daa952ba7f163c4a11628f55a4df523b3ef91a4949350505050565b6006546001600160a01b0316331461098b5760405163118cdaa760e01b815233600482015260240161079d565b600680546001600160a01b038381166001600160a01b0319831681179093556040519116919082907f8be0079c531659141344cd1fd0a4f28419497f9722a3daafe3b4186f6b6457e090600090a35050565b61077382826040518060200160405280600081525061123f565b6001600160a01b038216610eac57604051630b61174360e31b81526001600160a01b038316600482015260240161079d565b6001600160a01b03838116600081815260056020908152604080832094871680845294825291829020805460ff191686151590811790915591519182527f17307eab39ab6107e8899845ad3d59bd9653f200f220920489ca2b5937696c31910160405180910390a3505050565b6001600160a01b0383163b1561080157604051630a85bd0160e11b81526001600160a01b0384169063150b7a0290610f5b9033908890879087906004016119a6565b6020604051808303816000875af1925050508015610f96575060408051601f3d908101601f19168201909252610f93918101906119e3565b60015b610fff573d808015610fc4576040519150601f19603f3d011682016040523d82523d6000602084013e610fc9565b606091505b508051600003610ff757604051633250574960e11b81526001600160a01b038516600482015260240161079d565b805181602001fd5b6001600160e01b03198116630a85bd0160e11b1461103b57604051633250574960e11b81526001600160a01b038516600482015260240161079d565b5050505050565b6060600061104f83611256565b600101905060008167ffffffffffffffff81111561106f5761106f611617565b6040519080825280601f01601f191660200182016040528015611099576020820181803683370190505b5090508181016020015b600019016f181899199a1a9b1b9c1cb0b131b232b360811b600a86061a8153600a85049450846110a357509392505050565b80806110e957506001600160a01b03821615155b156111ab5760006110f984610ca2565b90506001600160a01b038316158015906111255750826001600160a01b0316816001600160a01b031614155b801561113857506111368184610c39565b155b156111615760405163a9fbf51f60e01b81526001600160a01b038416600482015260240161079d565b81156111a95783856001600160a01b0316826001600160a01b03167f8c5be1e5ebec7d5bd14f71427d1e84f3dd0314c0f7b2291e5b200ac8c7c3b92560405160405180910390a45b505b5050600090815260046020526040902080546001600160a01b0319166001600160a01b0392909216919091179055565b6111e683838361132e565b610866576001600160a01b03831661121457604051637e27328960e01b81526004810182905260240161079d565b60405163177e802f60e01b81526001600160a01b03831660048201526024810182905260440161079d565b6112498383611394565b6108666000848484610f19565b60008072184f03e93ff9f4daa797ed6e38ed64bf6a1f0160401b83106112955772184f03e93ff9f4daa797ed6e38ed64bf6a1f0160401b830492506040015b6d04ee2d6d415b85acef810000000083106112c1576d04ee2d6d415b85acef8100000000830492506020015b662386f26fc1000083106112df57662386f26fc10000830492506010015b6305f5e10083106112f7576305f5e100830492506008015b612710831061130b57612710830492506004015b6064831061131d576064830492506002015b600a831061046d5760010192915050565b60006001600160a01b0383161580159061138c5750826001600160a01b0316846001600160a01b0316148061136857506113688484610c39565b8061138c57506000828152600460205260409020546001600160a01b038481169116145b949350505050565b6001600160a01b0382166113be57604051633250574960e11b81526000600482015260240161079d565b60006113cc83836000610ce8565b90506001600160a01b03811615610866576040516339e3563760e11b81526000600482015260240161079d565b6001600160e01b03198116811461084857600080fd5b60006020828403121561142157600080fd5b8135610c01816113f9565b80356001600160a01b038116811461144357600080fd5b919050565b60006020828403121561145a57600080fd5b610c018261142c565b60005b8381101561147e578181015183820152602001611466565b50506000910152565b6000815180845261149f816020860160208601611463565b601f01601f19169290920160200192915050565b60006020808301818452808551808352604092508286019150828160051b87010184880160005b8381101561153c57888303603f19018552815180518452878101516001600160a01b0316888501528681015160808886018190529061151b82870182611487565b606093840151969093019590955250948701949250908601906001016114da565b509098975050505050505050565b602081526000610c016020830184611487565b60006020828403121561156f57600080fd5b5035919050565b6000806040838503121561158957600080fd5b6115928361142c565b946020939093013593505050565b6000806000606084860312156115b557600080fd5b6115be8461142c565b92506115cc6020850161142c565b9150604084013590509250925092565b8481526001600160a01b038416602082015260806040820181905260009061160690830185611487565b905082606083015295945050505050565b634e487b7160e01b600052604160045260246000fd5b600067ffffffffffffffff8084111561164857611648611617565b604051601f8501601f19908116603f0116810190828211818310171561167057611670611617565b8160405280935085815286868601111561168957600080fd5b858560208301376000602087830101525050509392505050565b6000602082840312156116b557600080fd5b813567ffffffffffffffff8111156116cc57600080fd5b8201601f810184136116dd57600080fd5b61138c8482356020840161162d565b600080604083850312156116ff57600080fd5b6117088361142c565b91506020830135801515811461171d57600080fd5b809150509250929050565b6000806000806080858703121561173e57600080fd5b6117478561142c565b93506117556020860161142c565b925060408501359150606085013567ffffffffffffffff81111561177857600080fd5b8501601f8101871361178957600080fd5b6117988782356020840161162d565b91505092959194509250565b600080604083850312156117b757600080fd5b6117c08361142c565b91506117ce6020840161142c565b90509250929050565b634e487b7160e01b600052603260045260246000fd5b600181811c9082168061180157607f821691505b60208210810361182157634e487b7160e01b600052602260045260246000fd5b50919050565b634e487b7160e01b600052601160045260246000fd5b60006001820161184f5761184f611827565b5060010190565b601f82111561086657600081815260208120601f850160051c8101602086101561187d5750805b601f850160051c820191505b8181101561189c57828155600101611889565b505050505050565b815167ffffffffffffffff8111156118be576118be611617565b6118d2816118cc84546117ed565b84611856565b602080601f83116001811461190757600084156118ef5750858301515b600019600386901b1c1916600185901b17855561189c565b600085815260208120601f198616915b8281101561193657888601518255948401946001909101908401611917565b50858210156119545787850151600019600388901b60f8161c191681555b5050505050600190811b01905550565b8181038181111561046d5761046d611827565b60008351611989818460208801611463565b83519083019061199d818360208801611463565b01949350505050565b6001600160a01b03858116825284166020820152604081018390526080606082018190526000906119d990830184611487565b9695505050505050565b6000602082840312156119f557600080fd5b8151610c01816113f956fea264697066735822122045cdbff277964283c057a86f988fa778983b1b69723952aac423a222c0607fc964736f6c63430008140033",
  "devdoc": {
    "errors": {
      "ERC721IncorrectOwner(address,uint256,address)": [
        {
          "details": "Indicates an error related to the ownership over a particular token. Used in transfers.",
          "params": {
            "owner": "Address of the current owner of a token.",
            "sender": "Address whose tokens are being transferred.",
            "tokenId": "Identifier number of a token."
          }
        }
      ],
      "ERC721InsufficientApproval(address,uint256)": [
        {
          "details": "Indicates a failure with the `operator`s approval. Used in transfers.",
          "params": {
            "operator": "Address that may be allowed to operate on tokens without being their owner.",
            "tokenId": "Identifier number of a token."
          }
        }
      ],
      "ERC721InvalidApprover(address)": [
        {
          "details": "Indicates a failure with the `approver` of a token to be approved. Used in approvals.",
          "params": {
            "approver": "Address initiating an approval operation."
          }
        }
      ],
      "ERC721InvalidOperator(address)": [
        {
          "details": "Indicates a failure with the `operator` to be approved. Used in approvals.",
          "params": {
            "operator": "Address that may be allowed to operate on tokens without being their owner."
          }
        }
      ],
      "ERC721InvalidOwner(address)": [
        {
          "details": "Indicates that an address can't be an owner. For example, `address(0)` is a forbidden owner in EIP-20. Used in balance queries.",
          "params": {
            "owner": "Address of the current owner of a token."
          }
        }
      ],
      "ERC721InvalidReceiver(address)": [
        {
          "details": "Indicates a failure with the token `receiver`. Used in transfers.",
          "params": {
            "receiver": "Address to which tokens are being transferred."
          }
        }
      ],
      "ERC721InvalidSender(address)": [
        {
          "details": "Indicates a failure with the token `sender`. Used in transfers.",
          "params": {
            "sender": "Address whose tokens are being transferred."
          }
        }
      ],
      "ERC721NonexistentToken(uint256)": [
        {
          "details": "Indicates a `tokenId` whose `owner` is the zero address.",
          "params": {
            "tokenId": "Identifier number of a token."
          }
        }
      ],
      "OwnableInvalidOwner(address)": [
        {
          "details": "The owner is not a valid owner account. (eg. `address(0)`)"
        }
      ],
      "OwnableUnauthorizedAccount(address)": [
        {
          "details": "The caller account is not authorized to perform an operation."
        }
      ]
    },
    "events": {
      "Approval(address,address,uint256)": {
        "details": "Emitted when `owner` enables `approved` to manage the `tokenId` token."
      },
      "ApprovalForAll(address,address,bool)": {
        "details": "Emitted when `owner` enables or disables (`approved`) `operator` to manage all of its assets."
      },
      "Transfer(address,address,uint256)": {
        "details": "Emitted when `tokenId` token is transferred from `from` to `to`."
      }
    },
    "kind": "dev",
    "methods": {
      "approve(address,uint256)": {
        "details": "See {IERC721-approve}."
      },
      "balanceOf(address)": {
        "details": "See {IERC721-balanceOf}."
      },
      "getApproved(uint256)": {
        "details": "See {IERC721-getApproved}."
      },
      "isApprovedForAll(address,address)": {
        "details": "See {IERC721-isApprovedForAll}."
      },
      "name()": {
        "details": "See {IERC721Metadata-name}."
      },
      "owner()": {
        "details": "Returns the address of the current owner."
      },
      "ownerOf(uint256)": {
        "details": "See {IERC721-ownerOf}."
      },
      "renounceOwnership()": {
        "details": "Leaves the contract without owner. It will not be possible to call `onlyOwner` functions. Can only be called by the current owner. NOTE: Renouncing ownership will leave the contract without an owner, thereby disabling any functionality that is only available to the owner."
      },
      "safeTransferFrom(address,address,uint256)": {
        "details": "See {IERC721-safeTransferFrom}."
      },
      "safeTransferFrom(address,address,uint256,bytes)": {
        "details": "See {IERC721-safeTransferFrom}."
      },
      "setApprovalForAll(address,bool)": {
        "details": "See {IERC721-setApprovalForAll}."
      },
      "supportsInterface(bytes4)": {
        "details": "See {IERC165-supportsInterface}."
      },
      "symbol()": {
        "details": "See {IERC721Metadata-symbol}."
      },
      "tokenURI(uint256)": {
        "details": "See {IERC721Metadata-tokenURI}."
      },
      "transferFrom(address,address,uint256)": {
        "details": "See {IERC721-transferFrom}."
      },
      "transferOwnership(address)": {
        "details": "Transfers ownership of the contract to a new account (`newOwner`). Can only be called by the current owner."
      }
    },
    "version": 1
  },
  "userdoc": {
    "kind": "user",
    "methods": {},
    "version": 1
  },
  "storageLayout": {
    "storage": [
      {
        "astId": 317,
        "contract": "contracts/ETHSafariTicket.sol:ETHSafariTicket",
        "label": "_name",
        "offset": 0,
        "slot": "0",
        "type": "t_string_storage"
      },
      {
        "astId": 319,
        "contract": "contracts/ETHSafariTicket.sol:ETHSafariTicket",
        "label": "_symbol",
        "offset": 0,
        "slot": "1",
        "type": "t_string_storage"
      },
      {
        "astId": 323,
        "contract": "contracts/ETHSafariTicket.sol:ETHSafariTicket",
        "label": "_owners",
        "offset": 0,
        "slot": "2",
        "type": "t_mapping(t_uint256,t_address)"
      },
      {
        "astId": 327,
        "contract": "contracts/ETHSafariTicket.sol:ETHSafariTicket",
        "label": "_balances",
        "offset": 0,
        "slot": "3",
        "type": "t_mapping(t_address,t_uint256)"
      },
      {
        "astId": 331,
        "contract": "contracts/ETHSafariTicket.sol:ETHSafariTicket",
        "label": "_tokenApprovals",
        "offset": 0,
        "slot": "4",
        "type": "t_mapping(t_uint256,t_address)"
      },
      {
        "astId": 337,
        "contract": "contracts/ETHSafariTicket.sol:ETHSafariTicket",
        "label": "_operatorApprovals",
        "offset": 0,
        "slot": "5",
        "type": "t_mapping(t_address,t_mapping(t_address,t_bool))"
      },
      {
        "astId": 8,
        "contract": "contracts/ETHSafariTicket.sol:ETHSafariTicket",
        "label": "_owner",
        "offset": 0,
        "slot": "6",
        "type": "t_address"
      },
      {
        "astId": 3249,
        "contract": "contracts/ETHSafariTicket.sol:ETHSafariTicket",
        "label": "_tokenIdCounter",
        "offset": 0,
        "slot": "7",
        "type": "t_uint256"
      },
      {
        "astId": 3266,
        "contract": "contracts/ETHSafariTicket.sol:ETHSafariTicket",
        "label": "tickets",
        "offset": 0,
        "slot": "8",
        "type": "t_mapping(t_uint256,t_struct(Ticket)3261_storage)"
      },
      {
        "astId": 3271,
        "contract": "contracts/ETHSafariTicket.sol:ETHSafariTicket",
        "label": "userTickets",
        "offset": 0,
        "slot": "9",
        "type": "t_mapping(t_address,t_array(t_uint256)dyn_storage)"
      }
    ],
    "types": {
      "t_address": {
        "encoding": "inplace",
        "label": "address",
        "numberOfBytes": "20"
      },
      "t_array(t_uint256)dyn_storage": {
        "base": "t_uint256",
        "encoding": "dynamic_array",
        "label": "uint256[]",
        "numberOfBytes": "32"
      },
      "t_bool": {
        "encoding": "inplace",
        "label": "bool",
        "numberOfBytes": "1"
      },
      "t_mapping(t_address,t_array(t_uint256)dyn_storage)": {
        "encoding": "mapping",
        "key": "t_address",
        "label": "mapping(address => uint256[])",
        "numberOfBytes": "32",
        "value": "t_array(t_uint256)dyn_storage"
      },
      "t_mapping(t_address,t_bool)": {
        "encoding": "mapping",
        "key": "t_address",
        "label": "mapping(address => bool)",
        "numberOfBytes": "32",
        "value": "t_bool"
      },
      "t_mapping(t_address,t_mapping(t_address,t_bool))": {
        "encoding": "mapping",
        "key": "t_address",
        "label": "mapping(address => mapping(address => bool))",
        "numberOfBytes": "32",
        "value": "t_mapping(t_address,t_bool)"
      },
      "t_mapping(t_address,t_uint256)": {
        "encoding": "mapping",
        "key": "t_address",
        "label": "mapping(address => uint256)",
        "numberOfBytes": "32",
        "value": "t_uint256"
      },
      "t_mapping(t_uint256,t_address)": {
        "encoding": "mapping",
        "key": "t_uint256",
        "label": "mapping(uint256 => address)",
        "numberOfBytes": "32",
        "value": "t_address"
      },
      "t_mapping(t_uint256,t_struct(Ticket)3261_storage)": {
        "encoding": "mapping",
        "key": "t_uint256",
        "label": "mapping(uint256 => struct ETHSafariTicket.Ticket)",
        "numberOfBytes": "32",
        "value": "t_struct(Ticket)3261_storage"
      },
      "t_string_storage": {
        "encoding": "bytes",
        "label": "string",
        "numberOfBytes": "32"
      },
      "t_struct(Ticket)3261_storage": {
        "encoding": "inplace",
        "label": "struct ETHSafariTicket.Ticket",
        "members": [
          {
            "astId": 3254,
            "contract": "contracts/ETHSafariTicket.sol:ETHSafariTicket",
            "label": "tokenId",
            "offset": 0,
            "slot": "0",
            "type": "t_uint256"
          },
          {
            "astId": 3256,
            "contract": "contracts/ETHSafariTicket.sol:ETHSafariTicket",
            "label": "owner",
            "offset": 0,
            "slot": "1",
            "type": "t_address"
          },
          {
            "astId": 3258,
            "contract": "contracts/ETHSafariTicket.sol:ETHSafariTicket",
            "label": "username",
            "offset": 0,
            "slot": "2",
            "type": "t_string_storage"
          },
          {
            "astId": 3260,
            "contract": "contracts/ETHSafariTicket.sol:ETHSafariTicket",
            "label": "mintedAt",
            "offset": 0,
            "slot": "3",
            "type": "t_uint256"
          }
        ],
        "numberOfBytes": "128"
      },
      "t_uint256": {
        "encoding": "inplace",
        "label": "uint256",
        "numberOfBytes": "32"
      }
    }
  }
}